{
	"data": {
		"bytecode": {
			"linkReferences": {},
			"object": "608060405234801561000f575f80fd5b506040516200100538038062001005833981810160405281019061003391906100d6565b805f806101000a81548173ffffffffffffffffffffffffffffffffffffffff021916908373ffffffffffffffffffffffffffffffffffffffff16021790555050610101565b5f80fd5b5f73ffffffffffffffffffffffffffffffffffffffff82169050919050565b5f6100a58261007c565b9050919050565b6100b58161009b565b81146100bf575f80fd5b50565b5f815190506100d0816100ac565b92915050565b5f602082840312156100eb576100ea610078565b5b5f6100f8848285016100c2565b91505092915050565b610ef6806200010f5f395ff3fe608060405260043610610054575f3560e01c8063091635e9146100585780632dd7d12f14610082578063498b520e146100be5780634d1d7d5f146100e65780639f7c764d14610122578063c6ffd54e1461013e575b5f80fd5b348015610063575f80fd5b5061006c610168565b60405161007991906107f1565b60405180910390f35b34801561008d575f80fd5b506100a860048036038101906100a39190610838565b610174565b6040516100b591906107f1565b60405180910390f35b3480156100c9575f80fd5b506100e460048036038101906100df9190610863565b610189565b005b3480156100f1575f80fd5b5061010c60048036038101906101079190610838565b610440565b60405161011991906107f1565b60405180910390f35b61013c60048036038101906101379190610838565b610460565b005b348015610149575f80fd5b506101526107b6565b60405161015f919061091b565b60405180910390f35b5f600280549050905090565b6001602052805f5260405f205f915090505481565b5f805f9054906101000a900473ffffffffffffffffffffffffffffffffffffffff1673ffffffffffffffffffffffffffffffffffffffff16636352211e846040518263ffffffff1660e01b81526004016101e391906107f1565b602060405180830381865afa1580156101fe573d5f803e3d5ffd5b505050506040513d601f19601f82011682018060405250810190610222919061096f565b90503373ffffffffffffffffffffffffffffffffffffffff168173ffffffffffffffffffffffffffffffffffffffff1614610292576040517f08c379a000000000000000000000000000000000000000000000000000000000815260040161028990610a1a565b60405180910390fd5b5f82116102d4576040517f08c379a00000000000000000000000000000000000000000000000000000000081526004016102cb90610a82565b60405180910390fd5b5f60015f8581526020019081526020015f205414610327576040517f08c379a000000000000000000000000000000000000000000000000000000000815260040161031e90610b10565b60405180910390fd5b5f8054906101000a900473ffffffffffffffffffffffffffffffffffffffff1673ffffffffffffffffffffffffffffffffffffffff1663e985e9c582306040518363ffffffff1660e01b8152600401610381929190610b3d565b602060405180830381865afa15801561039c573d5f803e3d5ffd5b505050506040513d601f19601f820116820180604052508101906103c09190610b99565b6103ff576040517f08c379a00000000000000000000000000000000000000000000000000000000081526004016103f690610c34565b60405180910390fd5b8160015f8581526020019081526020015f2081905550600283908060018154018082558091505060019003905f5260205f20015f9091909190915055505050565b6002818154811061044f575f80fd5b905f5260205f20015f915090505481565b5f60015f8381526020019081526020015f205490505f805f9054906101000a900473ffffffffffffffffffffffffffffffffffffffff1673ffffffffffffffffffffffffffffffffffffffff16636352211e846040518263ffffffff1660e01b81526004016104cf91906107f1565b602060405180830381865afa1580156104ea573d5f803e3d5ffd5b505050506040513d601f19601f8201168201806040525081019061050e919061096f565b90505f8211610552576040517f08c379a000000000000000000000000000000000000000000000000000000000815260040161054990610c9c565b60405180910390fd5b34821115610595576040517f08c379a000000000000000000000000000000000000000000000000000000000815260040161058c90610d04565b60405180910390fd5b3373ffffffffffffffffffffffffffffffffffffffff168173ffffffffffffffffffffffffffffffffffffffff1603610603576040517f08c379a00000000000000000000000000000000000000000000000000000000081526004016105fa90610d6c565b60405180910390fd5b8073ffffffffffffffffffffffffffffffffffffffff166108fc3490811502906040515f60405180830381858888f19350505050158015610646573d5f803e3d5ffd5b505f8054906101000a900473ffffffffffffffffffffffffffffffffffffffff1673ffffffffffffffffffffffffffffffffffffffff166342842e0e8233866040518463ffffffff1660e01b81526004016106a393929190610d8a565b5f604051808303815f87803b1580156106ba575f80fd5b505af11580156106cc573d5f803e3d5ffd5b505050505f60015f8581526020019081526020015f20819055505f5b6002805490508110156107b0575f60015f6002848154811061070d5761070c610dbf565b5b905f5260205f20015481526020019081526020015f20540361079d576002600160028054905061073d9190610e19565b8154811061074e5761074d610dbf565b5b905f5260205f2001546002828154811061076b5761076a610dbf565b5b905f5260205f200181905550600280548061078957610788610e4c565b5b600190038181905f5260205f20015f905590555b80806107a890610e79565b9150506106e8565b50505050565b5f8054906101000a900473ffffffffffffffffffffffffffffffffffffffff1681565b5f819050919050565b6107eb816107d9565b82525050565b5f6020820190506108045f8301846107e2565b92915050565b5f80fd5b610817816107d9565b8114610821575f80fd5b50565b5f813590506108328161080e565b92915050565b5f6020828403121561084d5761084c61080a565b5b5f61085a84828501610824565b91505092915050565b5f80604083850312156108795761087861080a565b5b5f61088685828601610824565b925050602061089785828601610824565b9150509250929050565b5f73ffffffffffffffffffffffffffffffffffffffff82169050919050565b5f819050919050565b5f6108e36108de6108d9846108a1565b6108c0565b6108a1565b9050919050565b5f6108f4826108c9565b9050919050565b5f610905826108ea565b9050919050565b610915816108fb565b82525050565b5f60208201905061092e5f83018461090c565b92915050565b5f61093e826108a1565b9050919050565b61094e81610934565b8114610958575f80fd5b50565b5f8151905061096981610945565b92915050565b5f602082840312156109845761098361080a565b5b5f6109918482850161095b565b91505092915050565b5f82825260208201905092915050565b7f43616c6c6572206973206e6f7420616e696d616c20746f6b656e206f776e65725f8201527f2e00000000000000000000000000000000000000000000000000000000000000602082015250565b5f610a0460218361099a565b9150610a0f826109aa565b604082019050919050565b5f6020820190508181035f830152610a31816109f8565b9050919050565b7f5072696365206973207a65726f206f72206c6f7765722e0000000000000000005f82015250565b5f610a6c60178361099a565b9150610a7782610a38565b602082019050919050565b5f6020820190508181035f830152610a9981610a60565b9050919050565b7f5468697320616e696d616c20746f6b656e20697320616c7265616479206f6e205f8201527f73616c652e000000000000000000000000000000000000000000000000000000602082015250565b5f610afa60258361099a565b9150610b0582610aa0565b604082019050919050565b5f6020820190508181035f830152610b2781610aee565b9050919050565b610b3781610934565b82525050565b5f604082019050610b505f830185610b2e565b610b5d6020830184610b2e565b9392505050565b5f8115159050919050565b610b7881610b64565b8114610b82575f80fd5b50565b5f81519050610b9381610b6f565b92915050565b5f60208284031215610bae57610bad61080a565b5b5f610bbb84828501610b85565b91505092915050565b7f416e696d616c20746f6b656e206f776e657220646964206e6f7420617070726f5f8201527f766520746f6b656e2e0000000000000000000000000000000000000000000000602082015250565b5f610c1e60298361099a565b9150610c2982610bc4565b604082019050919050565b5f6020820190508181035f830152610c4b81610c12565b9050919050565b7f416e696d616c20746f6b656e206e6f742073616c652e000000000000000000005f82015250565b5f610c8660168361099a565b9150610c9182610c52565b602082019050919050565b5f6020820190508181035f830152610cb381610c7a565b9050919050565b7f43616c6c65722073656e74206c6f776572207468616e2070726963652e0000005f82015250565b5f610cee601d8361099a565b9150610cf982610cba565b602082019050919050565b5f6020820190508181035f830152610d1b81610ce2565b9050919050565b7f43616c6c657220697320616e696d616c20746f6b656e206f776e65722e0000005f82015250565b5f610d56601d8361099a565b9150610d6182610d22565b602082019050919050565b5f6020820190508181035f830152610d8381610d4a565b9050919050565b5f606082019050610d9d5f830186610b2e565b610daa6020830185610b2e565b610db760408301846107e2565b949350505050565b7f4e487b71000000000000000000000000000000000000000000000000000000005f52603260045260245ffd5b7f4e487b71000000000000000000000000000000000000000000000000000000005f52601160045260245ffd5b5f610e23826107d9565b9150610e2e836107d9565b9250828203905081811115610e4657610e45610dec565b5b92915050565b7f4e487b71000000000000000000000000000000000000000000000000000000005f52603160045260245ffd5b5f610e83826107d9565b91507fffffffffffffffffffffffffffffffffffffffffffffffffffffffffffffffff8203610eb557610eb4610dec565b5b60018201905091905056fea26469706673582212201e8d79973d2c5fa69622a4f8eea1de02ae5a048d1cd43747608a48d45ad5909b64736f6c63430008140033",
			"opcodes": "PUSH1 0x80 PUSH1 0x40 MSTORE CALLVALUE DUP1 ISZERO PUSH2 0xF JUMPI PUSH0 DUP1 REVERT JUMPDEST POP PUSH1 0x40 MLOAD PUSH3 0x1005 CODESIZE SUB DUP1 PUSH3 0x1005 DUP4 CODECOPY DUP2 DUP2 ADD PUSH1 0x40 MSTORE DUP2 ADD SWAP1 PUSH2 0x33 SWAP2 SWAP1 PUSH2 0xD6 JUMP JUMPDEST DUP1 PUSH0 DUP1 PUSH2 0x100 EXP DUP2 SLOAD DUP2 PUSH20 0xFFFFFFFFFFFFFFFFFFFFFFFFFFFFFFFFFFFFFFFF MUL NOT AND SWAP1 DUP4 PUSH20 0xFFFFFFFFFFFFFFFFFFFFFFFFFFFFFFFFFFFFFFFF AND MUL OR SWAP1 SSTORE POP POP PUSH2 0x101 JUMP JUMPDEST PUSH0 DUP1 REVERT JUMPDEST PUSH0 PUSH20 0xFFFFFFFFFFFFFFFFFFFFFFFFFFFFFFFFFFFFFFFF DUP3 AND SWAP1 POP SWAP2 SWAP1 POP JUMP JUMPDEST PUSH0 PUSH2 0xA5 DUP3 PUSH2 0x7C JUMP JUMPDEST SWAP1 POP SWAP2 SWAP1 POP JUMP JUMPDEST PUSH2 0xB5 DUP2 PUSH2 0x9B JUMP JUMPDEST DUP2 EQ PUSH2 0xBF JUMPI PUSH0 DUP1 REVERT JUMPDEST POP JUMP JUMPDEST PUSH0 DUP2 MLOAD SWAP1 POP PUSH2 0xD0 DUP2 PUSH2 0xAC JUMP JUMPDEST SWAP3 SWAP2 POP POP JUMP JUMPDEST PUSH0 PUSH1 0x20 DUP3 DUP5 SUB SLT ISZERO PUSH2 0xEB JUMPI PUSH2 0xEA PUSH2 0x78 JUMP JUMPDEST JUMPDEST PUSH0 PUSH2 0xF8 DUP5 DUP3 DUP6 ADD PUSH2 0xC2 JUMP JUMPDEST SWAP2 POP POP SWAP3 SWAP2 POP POP JUMP JUMPDEST PUSH2 0xEF6 DUP1 PUSH3 0x10F PUSH0 CODECOPY PUSH0 RETURN INVALID PUSH1 0x80 PUSH1 0x40 MSTORE PUSH1 0x4 CALLDATASIZE LT PUSH2 0x54 JUMPI PUSH0 CALLDATALOAD PUSH1 0xE0 SHR DUP1 PUSH4 0x91635E9 EQ PUSH2 0x58 JUMPI DUP1 PUSH4 0x2DD7D12F EQ PUSH2 0x82 JUMPI DUP1 PUSH4 0x498B520E EQ PUSH2 0xBE JUMPI DUP1 PUSH4 0x4D1D7D5F EQ PUSH2 0xE6 JUMPI DUP1 PUSH4 0x9F7C764D EQ PUSH2 0x122 JUMPI DUP1 PUSH4 0xC6FFD54E EQ PUSH2 0x13E JUMPI JUMPDEST PUSH0 DUP1 REVERT JUMPDEST CALLVALUE DUP1 ISZERO PUSH2 0x63 JUMPI PUSH0 DUP1 REVERT JUMPDEST POP PUSH2 0x6C PUSH2 0x168 JUMP JUMPDEST PUSH1 0x40 MLOAD PUSH2 0x79 SWAP2 SWAP1 PUSH2 0x7F1 JUMP JUMPDEST PUSH1 0x40 MLOAD DUP1 SWAP2 SUB SWAP1 RETURN JUMPDEST CALLVALUE DUP1 ISZERO PUSH2 0x8D JUMPI PUSH0 DUP1 REVERT JUMPDEST POP PUSH2 0xA8 PUSH1 0x4 DUP1 CALLDATASIZE SUB DUP2 ADD SWAP1 PUSH2 0xA3 SWAP2 SWAP1 PUSH2 0x838 JUMP JUMPDEST PUSH2 0x174 JUMP JUMPDEST PUSH1 0x40 MLOAD PUSH2 0xB5 SWAP2 SWAP1 PUSH2 0x7F1 JUMP JUMPDEST PUSH1 0x40 MLOAD DUP1 SWAP2 SUB SWAP1 RETURN JUMPDEST CALLVALUE DUP1 ISZERO PUSH2 0xC9 JUMPI PUSH0 DUP1 REVERT JUMPDEST POP PUSH2 0xE4 PUSH1 0x4 DUP1 CALLDATASIZE SUB DUP2 ADD SWAP1 PUSH2 0xDF SWAP2 SWAP1 PUSH2 0x863 JUMP JUMPDEST PUSH2 0x189 JUMP JUMPDEST STOP JUMPDEST CALLVALUE DUP1 ISZERO PUSH2 0xF1 JUMPI PUSH0 DUP1 REVERT JUMPDEST POP PUSH2 0x10C PUSH1 0x4 DUP1 CALLDATASIZE SUB DUP2 ADD SWAP1 PUSH2 0x107 SWAP2 SWAP1 PUSH2 0x838 JUMP JUMPDEST PUSH2 0x440 JUMP JUMPDEST PUSH1 0x40 MLOAD PUSH2 0x119 SWAP2 SWAP1 PUSH2 0x7F1 JUMP JUMPDEST PUSH1 0x40 MLOAD DUP1 SWAP2 SUB SWAP1 RETURN JUMPDEST PUSH2 0x13C PUSH1 0x4 DUP1 CALLDATASIZE SUB DUP2 ADD SWAP1 PUSH2 0x137 SWAP2 SWAP1 PUSH2 0x838 JUMP JUMPDEST PUSH2 0x460 JUMP JUMPDEST STOP JUMPDEST CALLVALUE DUP1 ISZERO PUSH2 0x149 JUMPI PUSH0 DUP1 REVERT JUMPDEST POP PUSH2 0x152 PUSH2 0x7B6 JUMP JUMPDEST PUSH1 0x40 MLOAD PUSH2 0x15F SWAP2 SWAP1 PUSH2 0x91B JUMP JUMPDEST PUSH1 0x40 MLOAD DUP1 SWAP2 SUB SWAP1 RETURN JUMPDEST PUSH0 PUSH1 0x2 DUP1 SLOAD SWAP1 POP SWAP1 POP SWAP1 JUMP JUMPDEST PUSH1 0x1 PUSH1 0x20 MSTORE DUP1 PUSH0 MSTORE PUSH1 0x40 PUSH0 KECCAK256 PUSH0 SWAP2 POP SWAP1 POP SLOAD DUP2 JUMP JUMPDEST PUSH0 DUP1 PUSH0 SWAP1 SLOAD SWAP1 PUSH2 0x100 EXP SWAP1 DIV PUSH20 0xFFFFFFFFFFFFFFFFFFFFFFFFFFFFFFFFFFFFFFFF AND PUSH20 0xFFFFFFFFFFFFFFFFFFFFFFFFFFFFFFFFFFFFFFFF AND PUSH4 0x6352211E DUP5 PUSH1 0x40 MLOAD DUP3 PUSH4 0xFFFFFFFF AND PUSH1 0xE0 SHL DUP2 MSTORE PUSH1 0x4 ADD PUSH2 0x1E3 SWAP2 SWAP1 PUSH2 0x7F1 JUMP JUMPDEST PUSH1 0x20 PUSH1 0x40 MLOAD DUP1 DUP4 SUB DUP2 DUP7 GAS STATICCALL ISZERO DUP1 ISZERO PUSH2 0x1FE JUMPI RETURNDATASIZE PUSH0 DUP1 RETURNDATACOPY RETURNDATASIZE PUSH0 REVERT JUMPDEST POP POP POP POP PUSH1 0x40 MLOAD RETURNDATASIZE PUSH1 0x1F NOT PUSH1 0x1F DUP3 ADD AND DUP3 ADD DUP1 PUSH1 0x40 MSTORE POP DUP2 ADD SWAP1 PUSH2 0x222 SWAP2 SWAP1 PUSH2 0x96F JUMP JUMPDEST SWAP1 POP CALLER PUSH20 0xFFFFFFFFFFFFFFFFFFFFFFFFFFFFFFFFFFFFFFFF AND DUP2 PUSH20 0xFFFFFFFFFFFFFFFFFFFFFFFFFFFFFFFFFFFFFFFF AND EQ PUSH2 0x292 JUMPI PUSH1 0x40 MLOAD PUSH32 0x8C379A000000000000000000000000000000000000000000000000000000000 DUP2 MSTORE PUSH1 0x4 ADD PUSH2 0x289 SWAP1 PUSH2 0xA1A JUMP JUMPDEST PUSH1 0x40 MLOAD DUP1 SWAP2 SUB SWAP1 REVERT JUMPDEST PUSH0 DUP3 GT PUSH2 0x2D4 JUMPI PUSH1 0x40 MLOAD PUSH32 0x8C379A000000000000000000000000000000000000000000000000000000000 DUP2 MSTORE PUSH1 0x4 ADD PUSH2 0x2CB SWAP1 PUSH2 0xA82 JUMP JUMPDEST PUSH1 0x40 MLOAD DUP1 SWAP2 SUB SWAP1 REVERT JUMPDEST PUSH0 PUSH1 0x1 PUSH0 DUP6 DUP2 MSTORE PUSH1 0x20 ADD SWAP1 DUP2 MSTORE PUSH1 0x20 ADD PUSH0 KECCAK256 SLOAD EQ PUSH2 0x327 JUMPI PUSH1 0x40 MLOAD PUSH32 0x8C379A000000000000000000000000000000000000000000000000000000000 DUP2 MSTORE PUSH1 0x4 ADD PUSH2 0x31E SWAP1 PUSH2 0xB10 JUMP JUMPDEST PUSH1 0x40 MLOAD DUP1 SWAP2 SUB SWAP1 REVERT JUMPDEST PUSH0 DUP1 SLOAD SWAP1 PUSH2 0x100 EXP SWAP1 DIV PUSH20 0xFFFFFFFFFFFFFFFFFFFFFFFFFFFFFFFFFFFFFFFF AND PUSH20 0xFFFFFFFFFFFFFFFFFFFFFFFFFFFFFFFFFFFFFFFF AND PUSH4 0xE985E9C5 DUP3 ADDRESS PUSH1 0x40 MLOAD DUP4 PUSH4 0xFFFFFFFF AND PUSH1 0xE0 SHL DUP2 MSTORE PUSH1 0x4 ADD PUSH2 0x381 SWAP3 SWAP2 SWAP1 PUSH2 0xB3D JUMP JUMPDEST PUSH1 0x20 PUSH1 0x40 MLOAD DUP1 DUP4 SUB DUP2 DUP7 GAS STATICCALL ISZERO DUP1 ISZERO PUSH2 0x39C JUMPI RETURNDATASIZE PUSH0 DUP1 RETURNDATACOPY RETURNDATASIZE PUSH0 REVERT JUMPDEST POP POP POP POP PUSH1 0x40 MLOAD RETURNDATASIZE PUSH1 0x1F NOT PUSH1 0x1F DUP3 ADD AND DUP3 ADD DUP1 PUSH1 0x40 MSTORE POP DUP2 ADD SWAP1 PUSH2 0x3C0 SWAP2 SWAP1 PUSH2 0xB99 JUMP JUMPDEST PUSH2 0x3FF JUMPI PUSH1 0x40 MLOAD PUSH32 0x8C379A000000000000000000000000000000000000000000000000000000000 DUP2 MSTORE PUSH1 0x4 ADD PUSH2 0x3F6 SWAP1 PUSH2 0xC34 JUMP JUMPDEST PUSH1 0x40 MLOAD DUP1 SWAP2 SUB SWAP1 REVERT JUMPDEST DUP2 PUSH1 0x1 PUSH0 DUP6 DUP2 MSTORE PUSH1 0x20 ADD SWAP1 DUP2 MSTORE PUSH1 0x20 ADD PUSH0 KECCAK256 DUP2 SWAP1 SSTORE POP PUSH1 0x2 DUP4 SWAP1 DUP1 PUSH1 0x1 DUP2 SLOAD ADD DUP1 DUP3 SSTORE DUP1 SWAP2 POP POP PUSH1 0x1 SWAP1 SUB SWAP1 PUSH0 MSTORE PUSH1 0x20 PUSH0 KECCAK256 ADD PUSH0 SWAP1 SWAP2 SWAP1 SWAP2 SWAP1 SWAP2 POP SSTORE POP POP POP JUMP JUMPDEST PUSH1 0x2 DUP2 DUP2 SLOAD DUP2 LT PUSH2 0x44F JUMPI PUSH0 DUP1 REVERT JUMPDEST SWAP1 PUSH0 MSTORE PUSH1 0x20 PUSH0 KECCAK256 ADD PUSH0 SWAP2 POP SWAP1 POP SLOAD DUP2 JUMP JUMPDEST PUSH0 PUSH1 0x1 PUSH0 DUP4 DUP2 MSTORE PUSH1 0x20 ADD SWAP1 DUP2 MSTORE PUSH1 0x20 ADD PUSH0 KECCAK256 SLOAD SWAP1 POP PUSH0 DUP1 PUSH0 SWAP1 SLOAD SWAP1 PUSH2 0x100 EXP SWAP1 DIV PUSH20 0xFFFFFFFFFFFFFFFFFFFFFFFFFFFFFFFFFFFFFFFF AND PUSH20 0xFFFFFFFFFFFFFFFFFFFFFFFFFFFFFFFFFFFFFFFF AND PUSH4 0x6352211E DUP5 PUSH1 0x40 MLOAD DUP3 PUSH4 0xFFFFFFFF AND PUSH1 0xE0 SHL DUP2 MSTORE PUSH1 0x4 ADD PUSH2 0x4CF SWAP2 SWAP1 PUSH2 0x7F1 JUMP JUMPDEST PUSH1 0x20 PUSH1 0x40 MLOAD DUP1 DUP4 SUB DUP2 DUP7 GAS STATICCALL ISZERO DUP1 ISZERO PUSH2 0x4EA JUMPI RETURNDATASIZE PUSH0 DUP1 RETURNDATACOPY RETURNDATASIZE PUSH0 REVERT JUMPDEST POP POP POP POP PUSH1 0x40 MLOAD RETURNDATASIZE PUSH1 0x1F NOT PUSH1 0x1F DUP3 ADD AND DUP3 ADD DUP1 PUSH1 0x40 MSTORE POP DUP2 ADD SWAP1 PUSH2 0x50E SWAP2 SWAP1 PUSH2 0x96F JUMP JUMPDEST SWAP1 POP PUSH0 DUP3 GT PUSH2 0x552 JUMPI PUSH1 0x40 MLOAD PUSH32 0x8C379A000000000000000000000000000000000000000000000000000000000 DUP2 MSTORE PUSH1 0x4 ADD PUSH2 0x549 SWAP1 PUSH2 0xC9C JUMP JUMPDEST PUSH1 0x40 MLOAD DUP1 SWAP2 SUB SWAP1 REVERT JUMPDEST CALLVALUE DUP3 GT ISZERO PUSH2 0x595 JUMPI PUSH1 0x40 MLOAD PUSH32 0x8C379A000000000000000000000000000000000000000000000000000000000 DUP2 MSTORE PUSH1 0x4 ADD PUSH2 0x58C SWAP1 PUSH2 0xD04 JUMP JUMPDEST PUSH1 0x40 MLOAD DUP1 SWAP2 SUB SWAP1 REVERT JUMPDEST CALLER PUSH20 0xFFFFFFFFFFFFFFFFFFFFFFFFFFFFFFFFFFFFFFFF AND DUP2 PUSH20 0xFFFFFFFFFFFFFFFFFFFFFFFFFFFFFFFFFFFFFFFF AND SUB PUSH2 0x603 JUMPI PUSH1 0x40 MLOAD PUSH32 0x8C379A000000000000000000000000000000000000000000000000000000000 DUP2 MSTORE PUSH1 0x4 ADD PUSH2 0x5FA SWAP1 PUSH2 0xD6C JUMP JUMPDEST PUSH1 0x40 MLOAD DUP1 SWAP2 SUB SWAP1 REVERT JUMPDEST DUP1 PUSH20 0xFFFFFFFFFFFFFFFFFFFFFFFFFFFFFFFFFFFFFFFF AND PUSH2 0x8FC CALLVALUE SWAP1 DUP2 ISZERO MUL SWAP1 PUSH1 0x40 MLOAD PUSH0 PUSH1 0x40 MLOAD DUP1 DUP4 SUB DUP2 DUP6 DUP9 DUP9 CALL SWAP4 POP POP POP POP ISZERO DUP1 ISZERO PUSH2 0x646 JUMPI RETURNDATASIZE PUSH0 DUP1 RETURNDATACOPY RETURNDATASIZE PUSH0 REVERT JUMPDEST POP PUSH0 DUP1 SLOAD SWAP1 PUSH2 0x100 EXP SWAP1 DIV PUSH20 0xFFFFFFFFFFFFFFFFFFFFFFFFFFFFFFFFFFFFFFFF AND PUSH20 0xFFFFFFFFFFFFFFFFFFFFFFFFFFFFFFFFFFFFFFFF AND PUSH4 0x42842E0E DUP3 CALLER DUP7 PUSH1 0x40 MLOAD DUP5 PUSH4 0xFFFFFFFF AND PUSH1 0xE0 SHL DUP2 MSTORE PUSH1 0x4 ADD PUSH2 0x6A3 SWAP4 SWAP3 SWAP2 SWAP1 PUSH2 0xD8A JUMP JUMPDEST PUSH0 PUSH1 0x40 MLOAD DUP1 DUP4 SUB DUP2 PUSH0 DUP8 DUP1 EXTCODESIZE ISZERO DUP1 ISZERO PUSH2 0x6BA JUMPI PUSH0 DUP1 REVERT JUMPDEST POP GAS CALL ISZERO DUP1 ISZERO PUSH2 0x6CC JUMPI RETURNDATASIZE PUSH0 DUP1 RETURNDATACOPY RETURNDATASIZE PUSH0 REVERT JUMPDEST POP POP POP POP PUSH0 PUSH1 0x1 PUSH0 DUP6 DUP2 MSTORE PUSH1 0x20 ADD SWAP1 DUP2 MSTORE PUSH1 0x20 ADD PUSH0 KECCAK256 DUP2 SWAP1 SSTORE POP PUSH0 JUMPDEST PUSH1 0x2 DUP1 SLOAD SWAP1 POP DUP2 LT ISZERO PUSH2 0x7B0 JUMPI PUSH0 PUSH1 0x1 PUSH0 PUSH1 0x2 DUP5 DUP2 SLOAD DUP2 LT PUSH2 0x70D JUMPI PUSH2 0x70C PUSH2 0xDBF JUMP JUMPDEST JUMPDEST SWAP1 PUSH0 MSTORE PUSH1 0x20 PUSH0 KECCAK256 ADD SLOAD DUP2 MSTORE PUSH1 0x20 ADD SWAP1 DUP2 MSTORE PUSH1 0x20 ADD PUSH0 KECCAK256 SLOAD SUB PUSH2 0x79D JUMPI PUSH1 0x2 PUSH1 0x1 PUSH1 0x2 DUP1 SLOAD SWAP1 POP PUSH2 0x73D SWAP2 SWAP1 PUSH2 0xE19 JUMP JUMPDEST DUP2 SLOAD DUP2 LT PUSH2 0x74E JUMPI PUSH2 0x74D PUSH2 0xDBF JUMP JUMPDEST JUMPDEST SWAP1 PUSH0 MSTORE PUSH1 0x20 PUSH0 KECCAK256 ADD SLOAD PUSH1 0x2 DUP3 DUP2 SLOAD DUP2 LT PUSH2 0x76B JUMPI PUSH2 0x76A PUSH2 0xDBF JUMP JUMPDEST JUMPDEST SWAP1 PUSH0 MSTORE PUSH1 0x20 PUSH0 KECCAK256 ADD DUP2 SWAP1 SSTORE POP PUSH1 0x2 DUP1 SLOAD DUP1 PUSH2 0x789 JUMPI PUSH2 0x788 PUSH2 0xE4C JUMP JUMPDEST JUMPDEST PUSH1 0x1 SWAP1 SUB DUP2 DUP2 SWAP1 PUSH0 MSTORE PUSH1 0x20 PUSH0 KECCAK256 ADD PUSH0 SWAP1 SSTORE SWAP1 SSTORE JUMPDEST DUP1 DUP1 PUSH2 0x7A8 SWAP1 PUSH2 0xE79 JUMP JUMPDEST SWAP2 POP POP PUSH2 0x6E8 JUMP JUMPDEST POP POP POP POP JUMP JUMPDEST PUSH0 DUP1 SLOAD SWAP1 PUSH2 0x100 EXP SWAP1 DIV PUSH20 0xFFFFFFFFFFFFFFFFFFFFFFFFFFFFFFFFFFFFFFFF AND DUP2 JUMP JUMPDEST PUSH0 DUP2 SWAP1 POP SWAP2 SWAP1 POP JUMP JUMPDEST PUSH2 0x7EB DUP2 PUSH2 0x7D9 JUMP JUMPDEST DUP3 MSTORE POP POP JUMP JUMPDEST PUSH0 PUSH1 0x20 DUP3 ADD SWAP1 POP PUSH2 0x804 PUSH0 DUP4 ADD DUP5 PUSH2 0x7E2 JUMP JUMPDEST SWAP3 SWAP2 POP POP JUMP JUMPDEST PUSH0 DUP1 REVERT JUMPDEST PUSH2 0x817 DUP2 PUSH2 0x7D9 JUMP JUMPDEST DUP2 EQ PUSH2 0x821 JUMPI PUSH0 DUP1 REVERT JUMPDEST POP JUMP JUMPDEST PUSH0 DUP2 CALLDATALOAD SWAP1 POP PUSH2 0x832 DUP2 PUSH2 0x80E JUMP JUMPDEST SWAP3 SWAP2 POP POP JUMP JUMPDEST PUSH0 PUSH1 0x20 DUP3 DUP5 SUB SLT ISZERO PUSH2 0x84D JUMPI PUSH2 0x84C PUSH2 0x80A JUMP JUMPDEST JUMPDEST PUSH0 PUSH2 0x85A DUP5 DUP3 DUP6 ADD PUSH2 0x824 JUMP JUMPDEST SWAP2 POP POP SWAP3 SWAP2 POP POP JUMP JUMPDEST PUSH0 DUP1 PUSH1 0x40 DUP4 DUP6 SUB SLT ISZERO PUSH2 0x879 JUMPI PUSH2 0x878 PUSH2 0x80A JUMP JUMPDEST JUMPDEST PUSH0 PUSH2 0x886 DUP6 DUP3 DUP7 ADD PUSH2 0x824 JUMP JUMPDEST SWAP3 POP POP PUSH1 0x20 PUSH2 0x897 DUP6 DUP3 DUP7 ADD PUSH2 0x824 JUMP JUMPDEST SWAP2 POP POP SWAP3 POP SWAP3 SWAP1 POP JUMP JUMPDEST PUSH0 PUSH20 0xFFFFFFFFFFFFFFFFFFFFFFFFFFFFFFFFFFFFFFFF DUP3 AND SWAP1 POP SWAP2 SWAP1 POP JUMP JUMPDEST PUSH0 DUP2 SWAP1 POP SWAP2 SWAP1 POP JUMP JUMPDEST PUSH0 PUSH2 0x8E3 PUSH2 0x8DE PUSH2 0x8D9 DUP5 PUSH2 0x8A1 JUMP JUMPDEST PUSH2 0x8C0 JUMP JUMPDEST PUSH2 0x8A1 JUMP JUMPDEST SWAP1 POP SWAP2 SWAP1 POP JUMP JUMPDEST PUSH0 PUSH2 0x8F4 DUP3 PUSH2 0x8C9 JUMP JUMPDEST SWAP1 POP SWAP2 SWAP1 POP JUMP JUMPDEST PUSH0 PUSH2 0x905 DUP3 PUSH2 0x8EA JUMP JUMPDEST SWAP1 POP SWAP2 SWAP1 POP JUMP JUMPDEST PUSH2 0x915 DUP2 PUSH2 0x8FB JUMP JUMPDEST DUP3 MSTORE POP POP JUMP JUMPDEST PUSH0 PUSH1 0x20 DUP3 ADD SWAP1 POP PUSH2 0x92E PUSH0 DUP4 ADD DUP5 PUSH2 0x90C JUMP JUMPDEST SWAP3 SWAP2 POP POP JUMP JUMPDEST PUSH0 PUSH2 0x93E DUP3 PUSH2 0x8A1 JUMP JUMPDEST SWAP1 POP SWAP2 SWAP1 POP JUMP JUMPDEST PUSH2 0x94E DUP2 PUSH2 0x934 JUMP JUMPDEST DUP2 EQ PUSH2 0x958 JUMPI PUSH0 DUP1 REVERT JUMPDEST POP JUMP JUMPDEST PUSH0 DUP2 MLOAD SWAP1 POP PUSH2 0x969 DUP2 PUSH2 0x945 JUMP JUMPDEST SWAP3 SWAP2 POP POP JUMP JUMPDEST PUSH0 PUSH1 0x20 DUP3 DUP5 SUB SLT ISZERO PUSH2 0x984 JUMPI PUSH2 0x983 PUSH2 0x80A JUMP JUMPDEST JUMPDEST PUSH0 PUSH2 0x991 DUP5 DUP3 DUP6 ADD PUSH2 0x95B JUMP JUMPDEST SWAP2 POP POP SWAP3 SWAP2 POP POP JUMP JUMPDEST PUSH0 DUP3 DUP3 MSTORE PUSH1 0x20 DUP3 ADD SWAP1 POP SWAP3 SWAP2 POP POP JUMP JUMPDEST PUSH32 0x43616C6C6572206973206E6F7420616E696D616C20746F6B656E206F776E6572 PUSH0 DUP3 ADD MSTORE PUSH32 0x2E00000000000000000000000000000000000000000000000000000000000000 PUSH1 0x20 DUP3 ADD MSTORE POP JUMP JUMPDEST PUSH0 PUSH2 0xA04 PUSH1 0x21 DUP4 PUSH2 0x99A JUMP JUMPDEST SWAP2 POP PUSH2 0xA0F DUP3 PUSH2 0x9AA JUMP JUMPDEST PUSH1 0x40 DUP3 ADD SWAP1 POP SWAP2 SWAP1 POP JUMP JUMPDEST PUSH0 PUSH1 0x20 DUP3 ADD SWAP1 POP DUP2 DUP2 SUB PUSH0 DUP4 ADD MSTORE PUSH2 0xA31 DUP2 PUSH2 0x9F8 JUMP JUMPDEST SWAP1 POP SWAP2 SWAP1 POP JUMP JUMPDEST PUSH32 0x5072696365206973207A65726F206F72206C6F7765722E000000000000000000 PUSH0 DUP3 ADD MSTORE POP JUMP JUMPDEST PUSH0 PUSH2 0xA6C PUSH1 0x17 DUP4 PUSH2 0x99A JUMP JUMPDEST SWAP2 POP PUSH2 0xA77 DUP3 PUSH2 0xA38 JUMP JUMPDEST PUSH1 0x20 DUP3 ADD SWAP1 POP SWAP2 SWAP1 POP JUMP JUMPDEST PUSH0 PUSH1 0x20 DUP3 ADD SWAP1 POP DUP2 DUP2 SUB PUSH0 DUP4 ADD MSTORE PUSH2 0xA99 DUP2 PUSH2 0xA60 JUMP JUMPDEST SWAP1 POP SWAP2 SWAP1 POP JUMP JUMPDEST PUSH32 0x5468697320616E696D616C20746F6B656E20697320616C7265616479206F6E20 PUSH0 DUP3 ADD MSTORE PUSH32 0x73616C652E000000000000000000000000000000000000000000000000000000 PUSH1 0x20 DUP3 ADD MSTORE POP JUMP JUMPDEST PUSH0 PUSH2 0xAFA PUSH1 0x25 DUP4 PUSH2 0x99A JUMP JUMPDEST SWAP2 POP PUSH2 0xB05 DUP3 PUSH2 0xAA0 JUMP JUMPDEST PUSH1 0x40 DUP3 ADD SWAP1 POP SWAP2 SWAP1 POP JUMP JUMPDEST PUSH0 PUSH1 0x20 DUP3 ADD SWAP1 POP DUP2 DUP2 SUB PUSH0 DUP4 ADD MSTORE PUSH2 0xB27 DUP2 PUSH2 0xAEE JUMP JUMPDEST SWAP1 POP SWAP2 SWAP1 POP JUMP JUMPDEST PUSH2 0xB37 DUP2 PUSH2 0x934 JUMP JUMPDEST DUP3 MSTORE POP POP JUMP JUMPDEST PUSH0 PUSH1 0x40 DUP3 ADD SWAP1 POP PUSH2 0xB50 PUSH0 DUP4 ADD DUP6 PUSH2 0xB2E JUMP JUMPDEST PUSH2 0xB5D PUSH1 0x20 DUP4 ADD DUP5 PUSH2 0xB2E JUMP JUMPDEST SWAP4 SWAP3 POP POP POP JUMP JUMPDEST PUSH0 DUP2 ISZERO ISZERO SWAP1 POP SWAP2 SWAP1 POP JUMP JUMPDEST PUSH2 0xB78 DUP2 PUSH2 0xB64 JUMP JUMPDEST DUP2 EQ PUSH2 0xB82 JUMPI PUSH0 DUP1 REVERT JUMPDEST POP JUMP JUMPDEST PUSH0 DUP2 MLOAD SWAP1 POP PUSH2 0xB93 DUP2 PUSH2 0xB6F JUMP JUMPDEST SWAP3 SWAP2 POP POP JUMP JUMPDEST PUSH0 PUSH1 0x20 DUP3 DUP5 SUB SLT ISZERO PUSH2 0xBAE JUMPI PUSH2 0xBAD PUSH2 0x80A JUMP JUMPDEST JUMPDEST PUSH0 PUSH2 0xBBB DUP5 DUP3 DUP6 ADD PUSH2 0xB85 JUMP JUMPDEST SWAP2 POP POP SWAP3 SWAP2 POP POP JUMP JUMPDEST PUSH32 0x416E696D616C20746F6B656E206F776E657220646964206E6F7420617070726F PUSH0 DUP3 ADD MSTORE PUSH32 0x766520746F6B656E2E0000000000000000000000000000000000000000000000 PUSH1 0x20 DUP3 ADD MSTORE POP JUMP JUMPDEST PUSH0 PUSH2 0xC1E PUSH1 0x29 DUP4 PUSH2 0x99A JUMP JUMPDEST SWAP2 POP PUSH2 0xC29 DUP3 PUSH2 0xBC4 JUMP JUMPDEST PUSH1 0x40 DUP3 ADD SWAP1 POP SWAP2 SWAP1 POP JUMP JUMPDEST PUSH0 PUSH1 0x20 DUP3 ADD SWAP1 POP DUP2 DUP2 SUB PUSH0 DUP4 ADD MSTORE PUSH2 0xC4B DUP2 PUSH2 0xC12 JUMP JUMPDEST SWAP1 POP SWAP2 SWAP1 POP JUMP JUMPDEST PUSH32 0x416E696D616C20746F6B656E206E6F742073616C652E00000000000000000000 PUSH0 DUP3 ADD MSTORE POP JUMP JUMPDEST PUSH0 PUSH2 0xC86 PUSH1 0x16 DUP4 PUSH2 0x99A JUMP JUMPDEST SWAP2 POP PUSH2 0xC91 DUP3 PUSH2 0xC52 JUMP JUMPDEST PUSH1 0x20 DUP3 ADD SWAP1 POP SWAP2 SWAP1 POP JUMP JUMPDEST PUSH0 PUSH1 0x20 DUP3 ADD SWAP1 POP DUP2 DUP2 SUB PUSH0 DUP4 ADD MSTORE PUSH2 0xCB3 DUP2 PUSH2 0xC7A JUMP JUMPDEST SWAP1 POP SWAP2 SWAP1 POP JUMP JUMPDEST PUSH32 0x43616C6C65722073656E74206C6F776572207468616E2070726963652E000000 PUSH0 DUP3 ADD MSTORE POP JUMP JUMPDEST PUSH0 PUSH2 0xCEE PUSH1 0x1D DUP4 PUSH2 0x99A JUMP JUMPDEST SWAP2 POP PUSH2 0xCF9 DUP3 PUSH2 0xCBA JUMP JUMPDEST PUSH1 0x20 DUP3 ADD SWAP1 POP SWAP2 SWAP1 POP JUMP JUMPDEST PUSH0 PUSH1 0x20 DUP3 ADD SWAP1 POP DUP2 DUP2 SUB PUSH0 DUP4 ADD MSTORE PUSH2 0xD1B DUP2 PUSH2 0xCE2 JUMP JUMPDEST SWAP1 POP SWAP2 SWAP1 POP JUMP JUMPDEST PUSH32 0x43616C6C657220697320616E696D616C20746F6B656E206F776E65722E000000 PUSH0 DUP3 ADD MSTORE POP JUMP JUMPDEST PUSH0 PUSH2 0xD56 PUSH1 0x1D DUP4 PUSH2 0x99A JUMP JUMPDEST SWAP2 POP PUSH2 0xD61 DUP3 PUSH2 0xD22 JUMP JUMPDEST PUSH1 0x20 DUP3 ADD SWAP1 POP SWAP2 SWAP1 POP JUMP JUMPDEST PUSH0 PUSH1 0x20 DUP3 ADD SWAP1 POP DUP2 DUP2 SUB PUSH0 DUP4 ADD MSTORE PUSH2 0xD83 DUP2 PUSH2 0xD4A JUMP JUMPDEST SWAP1 POP SWAP2 SWAP1 POP JUMP JUMPDEST PUSH0 PUSH1 0x60 DUP3 ADD SWAP1 POP PUSH2 0xD9D PUSH0 DUP4 ADD DUP7 PUSH2 0xB2E JUMP JUMPDEST PUSH2 0xDAA PUSH1 0x20 DUP4 ADD DUP6 PUSH2 0xB2E JUMP JUMPDEST PUSH2 0xDB7 PUSH1 0x40 DUP4 ADD DUP5 PUSH2 0x7E2 JUMP JUMPDEST SWAP5 SWAP4 POP POP POP POP JUMP JUMPDEST PUSH32 0x4E487B7100000000000000000000000000000000000000000000000000000000 PUSH0 MSTORE PUSH1 0x32 PUSH1 0x4 MSTORE PUSH1 0x24 PUSH0 REVERT JUMPDEST PUSH32 0x4E487B7100000000000000000000000000000000000000000000000000000000 PUSH0 MSTORE PUSH1 0x11 PUSH1 0x4 MSTORE PUSH1 0x24 PUSH0 REVERT JUMPDEST PUSH0 PUSH2 0xE23 DUP3 PUSH2 0x7D9 JUMP JUMPDEST SWAP2 POP PUSH2 0xE2E DUP4 PUSH2 0x7D9 JUMP JUMPDEST SWAP3 POP DUP3 DUP3 SUB SWAP1 POP DUP2 DUP2 GT ISZERO PUSH2 0xE46 JUMPI PUSH2 0xE45 PUSH2 0xDEC JUMP JUMPDEST JUMPDEST SWAP3 SWAP2 POP POP JUMP JUMPDEST PUSH32 0x4E487B7100000000000000000000000000000000000000000000000000000000 PUSH0 MSTORE PUSH1 0x31 PUSH1 0x4 MSTORE PUSH1 0x24 PUSH0 REVERT JUMPDEST PUSH0 PUSH2 0xE83 DUP3 PUSH2 0x7D9 JUMP JUMPDEST SWAP2 POP PUSH32 0xFFFFFFFFFFFFFFFFFFFFFFFFFFFFFFFFFFFFFFFFFFFFFFFFFFFFFFFFFFFFFFFF DUP3 SUB PUSH2 0xEB5 JUMPI PUSH2 0xEB4 PUSH2 0xDEC JUMP JUMPDEST JUMPDEST PUSH1 0x1 DUP3 ADD SWAP1 POP SWAP2 SWAP1 POP JUMP INVALID LOG2 PUSH5 0x6970667358 0x22 SLT KECCAK256 0x1E DUP14 PUSH26 0x973D2C5FA69622A4F8EEA1DE02AE5A048D1CD43747608A48D45A 0xD5 SWAP1 SWAP12 PUSH5 0x736F6C6343 STOP ADDMOD EQ STOP CALLER "
		},
		"gasEstimates": {
			"creation": {
				"codeDepositCost": "766000",
				"executionCost": "infinite",
				"totalCost": "infinite"
			},
			"external": {
				"animalTokenPrices(uint256)": "infinite",
				"getOnSaleAnimalTokenArrayLength()": "2418",
				"mintAnimalTokenAddress()": "infinite",
				"onSaleAnimalTokenArray(uint256)": "infinite",
				"purchaseAnimalToken(uint256)": "infinite",
				"setForSaleAnimalToken(uint256,uint256)": "infinite"
			}
		},
		"methodIdentifiers": {
			"animalTokenPrices(uint256)": "2dd7d12f",
			"getOnSaleAnimalTokenArrayLength()": "091635e9",
			"mintAnimalTokenAddress()": "c6ffd54e",
			"onSaleAnimalTokenArray(uint256)": "4d1d7d5f",
			"purchaseAnimalToken(uint256)": "9f7c764d",
			"setForSaleAnimalToken(uint256,uint256)": "498b520e"
		}
	},
	"abi": [
		{
			"inputs": [
				{
					"internalType": "address",
					"name": "_mintAnimalTokenAddress",
					"type": "address"
				}
			],
			"stateMutability": "nonpayable",
			"type": "constructor"
		},
		{
			"inputs": [
				{
					"internalType": "uint256",
					"name": "",
					"type": "uint256"
				}
			],
			"name": "animalTokenPrices",
			"outputs": [
				{
					"internalType": "uint256",
					"name": "",
					"type": "uint256"
				}
			],
			"stateMutability": "view",
			"type": "function"
		},
		{
			"inputs": [],
			"name": "getOnSaleAnimalTokenArrayLength",
			"outputs": [
				{
					"internalType": "uint256",
					"name": "",
					"type": "uint256"
				}
			],
			"stateMutability": "view",
			"type": "function"
		},
		{
			"inputs": [],
			"name": "mintAnimalTokenAddress",
			"outputs": [
				{
					"internalType": "contract MintAnimalToken",
					"name": "",
					"type": "address"
				}
			],
			"stateMutability": "view",
			"type": "function"
		},
		{
			"inputs": [
				{
					"internalType": "uint256",
					"name": "",
					"type": "uint256"
				}
			],
			"name": "onSaleAnimalTokenArray",
			"outputs": [
				{
					"internalType": "uint256",
					"name": "",
					"type": "uint256"
				}
			],
			"stateMutability": "view",
			"type": "function"
		},
		{
			"inputs": [
				{
					"internalType": "uint256",
					"name": "_animalTokenId",
					"type": "uint256"
				}
			],
			"name": "purchaseAnimalToken",
			"outputs": [],
			"stateMutability": "payable",
			"type": "function"
		},
		{
			"inputs": [
				{
					"internalType": "uint256",
					"name": "_animalTokenId",
					"type": "uint256"
				},
				{
					"internalType": "uint256",
					"name": "_price",
					"type": "uint256"
				}
			],
			"name": "setForSaleAnimalToken",
			"outputs": [],
			"stateMutability": "nonpayable",
			"type": "function"
		}
	]
}